:100000000C94BC010C94D9010C94F4010C94D9010A
:100010000C94D9010C942D260C94D9010C94D9017F
:100020000C94D9010C94FE250C94D9010C94CF2585
:100030000C94D9010C94D9010C94D9010C94D901D8
:100040000C94D9010C94D9010C94D9010C94D901C8
:100050000C94D901FA1FE61F1620EA1FEC1FEE1FB1
:10006000F21F1420F61FF81FF41F02201C20FC1F93
:10007000202024202D202620262026202620262051
:100080002620262026202620122010201E20002098
:1000900022202820E81F2620262026202620262071
:1000A0002620262026202620262026202620262020
:1000B0002620262026202620262026202620262010
:1000C0002620262026202620262004200C2008205A
:1000D000F01FFE1F1820262026202620262026205E
:1000E00026202620262026202620262026202620E0
:1000F00026202620262026202620262026202620D0
:100100002620262026202620262006200E200A2013
:100110001A2005010906A101050719E029E71500C4
:1001200025019508750181029501750881039505E2
:1001300075010508190129059102950175039103BF
:100140000507190029FF95067508150026FF00818F
:1001500000C00600FF0901A101150026FF00750877
:10016000850195070900B20201850295830900B255
:100170000201C005010980A1018504150125B719F7
:100180000129B7751095018100C0050C0901A10175
:1001900085031501269C0219012A9C027510950100
:1001A0008100C009023B00020100A0FA090400001E
:1001B000010301010009210101000122400007059E
:1001C0008103080001090401000103000000092166
:1001D0000101000122510007058303080001FEF818
:1001E000F6FB01020408102040800000FC001C32D5
:1001F0002123242B3433433B424B3A31444D152DBC
:100200001B2C3C2A1D22351A161E26252E363D3E55
:1002100046455A76660D294E55545B5D5D4C520E2F
:1002200041494A580506040C030B830A0109780763
:100230007C7E7C706C7D71697A746B7275774A7C98
:100240007B795A69727A6B73746C757D7071612FEA
:10025000001412111F145911270000373F5E481077
:100260003A38302820184D153B34233221502B408A
:100270004B1C43221D0000F1F2370F0810182028F4
:100280003038404850575F6D000081008200830085
:100290008A012102230224022502260227022A02C1
:1002A000B500B600B700CD00E200E900EA00830126
:1002B00092019401000000000000000000009190F5
:1002C000666768696A6B6C6D6E6F70717273858634
:1002D000464800488E8D007172738F006A6B6E6D98
:1002E0006546494A4B4C4D4E52504F5154587172CD
:1002F000737475767778797A7B7C7D7E7F80818256
:10030000838485868788898A8F00494C4A4D4B4E65
:100310006A6E65504F525154003953470004030927
:10032000041C03770069006E006B00650079006CA7
:10033000006500730073002E006B007200120370E2
:100340000073003200610076007200470042001224
:1003500001100100000008A0202D4202010102004E
:100360000145464765666700202B2D2E303132331C
:10037000343536373839680011241FBECFE5D8E050
:10038000DEBFCDBF10E0A0E6B0E0ECE2F5E502C0D4
:1003900005900D92A038B107D9F715E0A0E8B0E0BC
:1003A00001C01D92A03AB107E1F70E94A0260C946B
:1003B000942A0C940000A82FB92F80E090E041E02F
:1003C00050EA609530E009C02D9182279795879576
:1003D00010F084279527305EC8F36F5FA8F3089567
:1003E000EADF8D939D930895CF93CFB7CF93C395B5
:1003F000839BE9F7839B0EC0839B0CC0839B0AC041
:10040000839B08C0839B06C0C0917705C395C093AA
:100410007705A3C0DF93C0917605DD27C258DA4F78
:10042000839B02C0DF91E6CF2F930F931F9300B3FE
:100430002FEF03FB20F94F933F9310B34FEF0127AA
:1004400003FB21F93BE031C04E7F012F10B3216047
:1004500028C0102F4D7F2260000000B329C04B7FC1
:100460002460012F000010B32BC010B3477F286019
:100470002AC04F7E00B320612CC04F7D10B3206294
:100480002FC04F7B00B3206432C0422700B3499392
:100490004FEF0000102713FB20F910B31C70C9F1B7
:1004A000297F91F2012703FB21F900B3237F89F211
:1004B000315058F1102713FB22F910B3277E79F23F
:1004C000012703FB23F92F7C81F200B3102713FBD4
:1004D00024F92F7971F200C010B3012703FB25F92D
:1004E0002F7359F200C000B3102713FB26F92230F6
:1004F00040F200C010B3012703FB27F9243028F68F
:100500004F77206810B30000F9CF10E81ABF00271A
:1005100019C03B503195C31BD04010E81ABF088169
:10052000033CF9F00B34E9F0209173051981110FA8
:100530001213EDCF4A81441F093641F10D3211F0FB
:10054000013E29F700937C053F914F911F910F9138
:100550002F91DF91CAB7C7FD4ACFCF91CFBFCF91BF
:10056000189520917C05222379F310917A051123A7
:10057000C1F53430C2F130937A052093750510919E
:1005800076053BE0311B309376052DC000917A054E
:1005900001303CF50AE54F7049F430917D0034FD9F
:1005A00024C000937D00CCE5D5E023C0433049F062
:1005B0003091670534FD19C000936705C8E6D5E0A2
:1005C00018C03091940534FD10C000939405C5E91E
:1005D000D5E00FC02795A8F45150A9F4220F0000D0
:1005E000F9CF4AE503C042ED01C0432FC4E1D0E09A
:1005F00032E011B31C60939A11BB02B320E41CE0FB
:100600005F93012756E002BB279520F4515021F457
:10061000220FF9CF012756E000003B5A02BBD0F26F
:10062000279528F4515029F4220F0000F9CF012713
:1006300056E0279502BB20F4515021F4220FF9CF48
:10064000012756E02991332302BB21F6037F109145
:100650007B05110FC651D04002BB11F010937305FA
:1006600010E81ABF086011B3137F402F437F5F91DA
:1006700000C000C002BB11BB42BB66CFA89AA99ABA
:1006800086B7846086BF109280000895BC010898E8
:10069000099880EE9EE20E94A128603130F0862FFA
:1006A00090E0409795958795682F60B9089586B733
:1006B0008F70806A86BF089586B78F70806D86BF01
:1006C0000895FC01108205C080818F5F8083803A8D
:1006D00018F406B607FEF8CF089583B986B78F7071
:1006E000806886BF0895CF92DF92EF92FF920F93BA
:1006F0001F93DF93CF930F92CDB7DEB7E82EF62E80
:100700006A0186B78E7F86BF0E9457038E010F5FF6
:100710001F4FC8010E9461038981803A08F58E2D20
:100720008E7F0E946D03C8010E9461038981803A17
:10073000B8F481B1883159F011E00CC0F601819113
:100740006F010E946D03C8010E946103FA94FF20AB
:10075000A9F710E00E945C0386B7816086BF01C0E4
:1007600011E0812F0F90CF91DF911F910F91FF909A
:10077000EF90DF90CF9008950F931F93982FF8017B
:10078000442321F0222391F484E003C0222371F05A
:1007900082E08083662329F080912101892B809358
:1007A000210180912001892B809320011F910F91BD
:1007B000089520919C00222309F457C08091A20043
:1007C0009091A30001969093A3008093A200853698
:1007D00091050CF452C0213011F02330E1F48091E6
:1007E0002001982F80FF07C08091210180FF02C067
:1007F000909A01C0909891FF07C08091210181FFDC
:1008000002C0919A01C0919896FF27C08091210162
:1008100086FF20C021C0243011F02230F1F48091F5
:100820002001982F80FF07C08091210180FF02C026
:10083000909801C0909A91FF07C08091210181FF9B
:1008400002C0919801C0919A96FF07C08091210142
:1008500086FF02C0969801C0969A1092A30010924B
:10086000A200215020939C00089510922101109223
:1008700020011092A3001092A2000895662361F057
:10088000813011F4909A0895823011F4919A08956C
:10089000843069F4969A0895813011F490980895FF
:1008A000823011F491980895843009F4969808954F
:1008B000CF93DF93FC018091680081838091840055
:1008C0008283809108019091090163E070E00E94A9
:1008D000A1286383EF012496A1E1B1E083E00D90AC
:1008E00009928150E1F7EF012796A4E1B1E083E09E
:1008F0000D9009928150E1F7EF012A96A7E1B1E04E
:1009000083E00D9009928150E1F783EF90E09F0121
:10091000235F3F4FE901DC0143E00D900992415014
:10092000E1F703962D5F3F4F41E08830940791F740
:100930008091810082A3EF01A396AAE1B1E083E058
:100940000D9009928150E1F780918C0086A38091EF
:10095000690087A380918B0080A78091670081A7A1
:10096000DF01D096E4EAF0E083E001900D9281503F
:10097000E1F7DF91CF910895809181008F5F80939F
:100980008100833011F41092810080918200816097
:100990008093820008950F931F93CF93DF9300916C
:1009A0000F011091100180910801909109018017A9
:1009B000910738F0C0910D01D0910E01C017D107F9
:1009C00021F48FEF8093AA0018C0BE01681B790B39
:1009D00080E090E02DEC30E040E050E00E9476288E
:1009E000C01BD10B9E01442737FD4095542F0E9418
:1009F000C8282E5C3F4F2093AA00DF91CF911F9112
:100A00000F91089520910A0130910B018091080106
:100A1000909109012817390720F430930901209398
:100A200008010895882309F448C0809368008F3F27
:100A300011F48CE003C0893118F088E180936800DC
:100A4000209168008CEC95E1622F70E00E94B5283F
:100A500070930E0160930D0132E06B3F730734F029
:100A60008AEF92E090930E0180930D018EE898E05A
:100A7000622F70E00E94B5287093100160930F01FF
:100A800022E06B3F720734F08AEF92E090931001FE
:100A900080930F0180917F00882329F480910F01BA
:100AA0009091100104C080910D0190910E019093DE
:100AB0000B0180930A010E940205089510928300A1
:100AC000089580939D00089580919D000895209140
:100AD000670030E0AC01429FC001439F900D529FE0
:100AE000900D11246FEF70E00E94A1288091AA0060
:100AF000482F50E09B014617570708F49A01C90197
:100B000008958F929F92AF92BF92CF92DF92EF9211
:100B1000FF920F931F93CF93DF93EC01298198806D
:100B2000822F90E0890D911D8A80880D911D609122
:100B30000801709109016817790760F57B0100E0F1
:100B400010E05C01CC24DD2430E040E050E0C8013E
:100B5000B7010E947628A60195010E94C828298322
:100B6000692D70E080E090E0A80197010E9476284E
:100B7000A60195010E94C8282883682D70E080E0B6
:100B800090E0A80197010E947628A60195010E9495
:100B9000C8282A839981933050F08881981739F4B6
:100BA0008A81981721F49150988391509A83DF910C
:100BB000CF911F910F91FF90EF90DF90CF90BF905A
:100BC000AF909F908F90089580919B008F5F80934E
:100BD0009B00873010F010929B000895FC018081EB
:100BE000873010F08750808308950F931F93CF9321
:100BF000DF93EC010E94EE050091680010E019C03F
:100C00002881822F90E0FC01EE0FFF1FE80FF91FF3
:100C1000ED50FF4F8181882371F48081882359F43E
:100C20008281882341F42F5F2883CE010E94EE0544
:100C30001F5F101728F3DF91CF911F910F91089537
:100C40001F93FC01DB011081E12FF0E05C91252F67
:100C500030E0642F70E0CB01820F931F8E179F0747
:100C600014F4540F06C0261B370BE217F3071CF4CD
:100C7000541B5C9301C01C931F9108950E94CC25C6
:100C8000089590918B00913029F410928D0010926C
:100C90008E000895923029F48FEF90E00E9467054E
:100CA0001BC0892F83508230A8F483E080938F008B
:100CB000943019F481E080938F0080918F009FEF32
:100CC000899FC00111246CE070E00E94B5286093F8
:100CD0009000089580E090E00E943E060895809183
:100CE0008B00823011F40E94410608950E94CB04CB
:100CF000809184008250833018F482E080939800C1
:100D00000E946F0680918800846080938800089517
:100D10008130A1F4809167008E31A1F189518093D7
:100D200067008E3118F48EE1809367000E946F0691
:100D30008091880082608093880020C08230F1F426
:100D400080910801909109018536910518F482E39C
:100D500090E002C08456904090930901809308016E
:100D60008091080190910901C29730F482E390E0EC
:100D700090930901809308010E94760610928A00E0
:100D80001092890008958130A9F4809167008F3F07
:100D900029F190E049968F3F910511F00CF08FEF0B
:100DA000809367000E946F06809188008260809324
:100DB000880010C0823071F480910801909109017F
:100DC0008C599F4F90930901809308010E9402055E
:100DD0000E94760610928A00109289000895609110
:100DE000680083E0689FB001112460930C0180EBE0
:100DF0004BEA50E00E94730310920C0108950F9388
:100E00001F93CF93DF938C01909168004BEA50E0E1
:100E100083E0989FB0011124EB01C40FD51F09C0D6
:100E2000DA01F80183E001900D928150E1F74D5F06
:100E30005F4F4C175D07A1F760930C010E94EF060E
:100E4000DF91CF911F910F910895DF93CF9300D041
:100E50000F92CDB7DEB769837A838B83CE0101967B
:100E60000E94810590911E018A81981751F49091FA
:100E70001D018981981729F490911F018B81981782
:100E800069F0ADE1B1E0FE01319683E001900D9291
:100E90008150E1F7CE0101960E94FF060F900F905E
:100EA0000F90CF91DF9108951092AC001092AB009B
:100EB0001092AD0010921E0110921D0110921F01A0
:100EC0001092A800E8EAF0E012921092A900CF0177
:100ED0000E94FF06089590989198969880E090E07F
:100EE0000E943E0694980E945407089581E08093E2
:100EF000850080E090E00E943E0694980E9454078E
:100F00000895FF920F931F93CF93DF931092920057
:100F1000F0906800CBEAD0E083E0F89E80011124D5
:100F20000C0F1D1F1DC082E990E00E94F505809105
:100F3000920090E0FC01EE0FFF1FE80FF91FDE01A9
:100F4000ED50FF4F83E001900D928150E1F7CE010B
:100F50000E948105809192008F5F8093920023967A
:100F6000C017D10701F78F2D90E0FC01EE0FFF1F96
:100F7000E80FF91FA7EAB0E0E555FF4F83E00190C5
:100F80000D928150E1F70E94EF06DF91CF911F9102
:100F90000F91FF900895FF920F931F93DF93CF93CC
:100FA0000F92CDB7DEB7F62E042F1982813041F5AE
:100FB00082B3862B82BB40E080919D00802309F0A4
:100FC00041E020E080919E00802309F021E08F2DF8
:100FD00061E08E010F5F1F4F0E94BC03898188234F
:100FE00009F0BAC00E94E120182F0E94E42040E0DE
:100FF000111141E020E0811121E08F2D61E0A7C0B7
:10100000823051F582B3962F9095982392BB40E0A1
:1010100080919D00802309F041E020E080919E00B6
:10102000802309F021E08F2D60E08E010F5F1F4FBC
:101030000E94BC038981882309F08EC00E94E120B0
:10104000182F0E94E42040E0111141E020E08111BE
:1010500021E08F2D60E07BC08823A9F410919D00D2
:10106000142319F082B3862B04C092B3862F809587
:10107000892382BB0E94E120082F0E94E42060E0C7
:101080001123C1F016C08330D1F410919D001423B8
:1010900029F092B3862F8095892302C082B3862BD4
:1010A00082BB0E94E120082F0E94E42060E011230F
:1010B00009F461E040E0011141E020E045C08430E6
:1010C00091F40E94E120823019F482B38F2904C088
:1010D00092B38F2D8095892382BB0E94E12060E02E
:1010E000823041F526C0853091F40E94E1208330A2
:1010F00019F482B38F2904C092B38F2D8095892370
:1011000082BB0E94E12060E08330A1F412C08630EF
:1011100019F50E94E120882319F082B38F2904C0B9
:1011200092B38F2D8095892382BB0E94E12060E0DD
:10113000811161E040E080919D00802309F041E051
:1011400020E080919E008023811121E08F2D8E016F
:101150000F5F1F4F0E94BC0389810F90CF91DF91D9
:101160001F910F91FF9008958091A40061E041E0EC
:101170000E94CB07882311F080939C008091A500EA
:1011800062E042E00E94CB07882311F080939C002C
:101190008091A60060E444E00E94CB07882311F010
:1011A00080939C0080919D0080939E0008958823E9
:1011B00071F080E00E94842589B78B7F89BF80E031
:1011C00090E00E943E0694980E94C52508950E94D2
:1011D00089250E94BE2580918B00823011F40E94E7
:1011E0004106089580917F00882331F48091840026
:1011F000811181E00E94D70880918400813049F4F8
:101200000E94CB04109291001092920010929300D1
:1012100037C0823061F40E94CB04A7EAB0E0E1E17C
:10122000F1E083E001900D928150E1F71BC0833023
:1012300061F40E94CB04A7EAB0E0E4E1F1E083E0CE
:1012400001900D928150E1F70DC08430A1F40E940D
:10125000CB04A7EAB0E0E7E1F1E083E001900D9272
:101260008150E1F76091A7007091A8008091A900DA
:101270000E94250705C00E9454078FEF8093AA00A3
:101280000E946F060895109285000E94B4080E9483
:1012900041060E94F2080895109285000E944106BE
:1012A0000E94F20808950F931F93082F122F0E9497
:1012B0002E1D882309F097C080918500882309F0AE
:1012C00092C0112309F46FC020918B00233008F1E4
:1012D00084EF91E0909395008093940080918F002B
:1012E0008C3030F4233011F48F5F05C0882329F04F
:1012F000243019F4815080938F0080918F009FEFEC
:10130000899FC00111246CE070E00E94A1286093C5
:10131000900080918400882309F465C0053F09F49A
:1013200062C0809181008130B9F4ABEAB0E0EAE1BB
:10133000F1E083E001900D928150E1F78BEA90E0BB
:101340000E948105ADE1B1E0EBEAF0E083E00190BD
:101350000D928150E1F71FC0823009F044C08091A6
:10136000A70080958093AB008091A8008095809322
:10137000AC008091A90080958093AD008BEA90E04D
:101380000E948105ADE1B1E0EBEAF0E083E001907D
:101390000D928150E1F78BEA90E00E94FF0681E018
:1013A0008093980020C0809198008130B1F48091A2
:1013B0008400813049F480918C00833019F40E94BC
:1013C00081070FC0843069F06091A7007091A80078
:1013D0008091A9000E94250704C0823011F40E9468
:1013E000F208109298001F910F91089510928800B2
:1013F0001092820089E090E00E944E2A809367005C
:101400008BE090E00E944E2A8F7080938B008F308B
:1014100011F410928B008BE090E00E944E2A82958E
:101420008F70809384008F3011F41092840081E1DA
:1014300091E06AE871E043E050E00E943E2A84E1D6
:1014400091E06DE871E043E050E00E943E2A87E1C0
:1014500091E060E971E043E050E00E943E2A83EFB2
:1014600090E065E771E045E150E00E943E2A85E0AA
:1014700090E00E944E2A80938C0082E090E00E94CF
:101480004E2A90E08F3F910519F42DEE30E005C013
:101490009C01220F331F280F391F3093090120931D
:1014A000080184E090E00E944E2A0E94120583E029
:1014B00090E00E944E2A8F70809381008F3011F44B
:1014C000109281008AE191E065EE73E043E050E024
:1014D0000E943E2A83E991E00E944E2A809369008F
:1014E0008F3F11F488E703C08B3F18F08AEF809399
:1014F000690084EA90E064E971E043E050E00E9412
:101500003E2A8091A4008F3F11F41092A400809194
:10151000A5008F3F11F41092A5008091A6008F3F87
:1015200011F41092A6000E94CB040E9441060E9472
:10153000F208089580938400853010F010928400A2
:10154000662329F4109298000E94F20803C082E0FA
:10155000809398008091880081608093880008952E
:101560001F93182F0E942E1D882301F5113089F436
:1015700080918B008F5F80938B00853011F41092E7
:101580008B000E94410680918800816080938800D2
:1015900009C0123039F4809184008F5F609181001E
:1015A0000E949A0A10928A00109289001F91089551
:1015B0000F931F93082F162F0E947B1C112359F0A5
:1015C000093349F48230A1F0803291F0813069F022
:1015D000803119F40AC00D3F11F481E00AC0013FC7
:1015E00059F4813011F0803119F40E94BC041DC0FF
:1015F00082E00E94B00A19C00A3F51F4823011F013
:10160000803211F482E001C081E00E94C3060DC067
:10161000093F11F081E00AC0823011F0803211F4EC
:1016200082E001C081E00E94880680E01F910F9156
:101630000895CF93DF93EC0189818F3119F41092D3
:101640009F0008C1803109F044C090919F00892F0C
:101650008150833040F5892F90E00197FC01EE0F17
:10166000FF1FE80FF91FEE0FFF1FED50FF4FDE01C8
:10167000129683E00D9001928150E1F780919F00D6
:1016800090E0880F991F0197FC01EE0FFF1FE80FF4
:10169000F91FED50FF4FDE01159683E00D9001928A
:1016A0008150E1F710C0943071F4A5E0B1E0FE0183
:1016B000329683E001900D928150E1F7809188008D
:1016C00080688093880080919F008F5F80939F0047
:1016D000C1C0813169F4A1E1B1E0FE01329683E03D
:1016E00001900D928150E1F78091880080610EC0D9
:1016F000823189F4A4E1B1E0FE01329683E00190E9
:101700000D928150E1F7809188008062809388007B
:101710000E94F2089FC0833169F4A7E1B1E0FE01A5
:10172000329683E001900D928150E1F7809188001C
:101730008064ECCF813A69F4AAE1B1E0FE0132960F
:1017400083E001900D928150E1F7809182008260E8
:101750007FC0803229F48A8160E00E949A0A7AC0B0
:101760008034B1F48A8123E0829FC00111249093D8
:10177000090180930801892B31F483E090E0909374
:101780000901809308010E9402050E947606C0CFDD
:10179000813239F48A818093810080918200816056
:1017A00057C0833279F48A8180938C001092910023
:1017B0001092920010929B001092930080918200F0
:1017C000846046C0803359F40E9454078A810E9485
:1017D00012050E94CB0480918800886017C0803871
:1017E00059F48A8180938B00809188008160809376
:1017F00088000E9441062EC0813859F48A81809366
:1018000067000E946F068091880082608093880044
:1018100021C0843839F48A818093690080918200E4
:10182000886016C0853821F48A818093A4000BC09B
:10183000863821F48A818093A50005C0873851F449
:101840008A818093A6000E94B40880918200806102
:101850008093820010928A0010928900DF91CF91CC
:101860000895809183008823A9F481E08093830008
:1018700088E00E94B52580918400882321F0809122
:101880007F00813011F480E001C081E00E94D70820
:101890000E94F609089581B3836581BB82B38C7A77
:1018A00082BB0E943E0380E991E00E9446030895B6
:1018B000CF93DF93EC018091A4008130E1F0882385
:1018C00029F480919D0080FD16C00DC0833029F45D
:1018D00080919D0080FF0FC006C0843021F40E94DB
:1018E000E120823041F08091A400853031F40E94E3
:1018F000E120833011F4909801C0909A8091A50066
:101900008130E1F0882329F480919D0081FD16C08B
:101910000DC0833029F480919D0081FF0FC006C067
:10192000843021F40E94E120823041F08091A500B2
:10193000853031F40E94E120833011F4919801C088
:10194000919ACE010E94DF1E8091A4008130E1F0C7
:10195000882329F480919D0080FD16C00DC083303E
:1019600029F480919D0080FF0FC006C0843021F4CF
:101970000E94E120823041F08091A400853031F452
:101980000E94E120833011F4909A01C090988091D8
:10199000A5008130E1F0882329F480919D0081FF2A
:1019A0000EC015C0833029F480919D0081FD07C0D1
:1019B0000EC0843021F40E94E120823041F08091F9
:1019C000A500853031F40E94E120833011F4919A12
:1019D00001C09198DF91CF9108950E94A82088239B
:1019E000E1F08091A0009091A10001969093A10058
:1019F0008093A000855893409CF090916A009130AC
:101A000011F4919801C0919A1092A1001092A00037
:101A100081E0982790936A00089581E080936A009E
:101A20000895CF92DF92EF92FF920F931F93CF937F
:101A3000DF9380918300882321F00E942E1D88234C
:101A4000D1F00E942E1D882309F437C380918600AF
:101A5000909187000196909387008093860001976C
:101A6000815197420CF429C310928700109286008E
:101A70000E946B0722C30E94ED0C0E94D9032091A3
:101A80008800222329F480918200882309F4CDC0A4
:101A90008091890090918A00019690938A008093AA
:101AA0008900885B9B4009F0C0C010928A001092A8
:101AB000890020FF0CC0609184006295607F809156
:101AC0008B008F70682B8BE090E00E94662A8091DB
:101AD0008800869580FF06C089E090E060916700ED
:101AE0000E94662A809188008695869580FF0CC0AA
:101AF000809108019091090163E070E00E94A128A3
:101B000082E090E00E94662A809188008695869502
:101B1000869580FF0AC00E9441060E94F20884E078
:101B200090E0609168000E94662A8091880082950A
:101B30008F7080FF08C081E191E06AE871E043E0C6
:101B400050E00E94562A8091880082958695877081
:101B500080FF08C084E191E06DE871E043E050E06F
:101B60000E94562A8091880082958695869583707A
:101B700080FF08C087E191E060E971E043E050E058
:101B80000E94562A8091880087FF08C083EF90E06A
:101B900065E771E045E150E00E94562A809182009D
:101BA0008695869580FF06C085E090E060918C0068
:101BB0000E94662A8091820080FF07C060918100A8
:101BC0006F7083E090E00E94662A80918200869583
:101BD00080FF08C08AE191E065EE73E043E050E0E9
:101BE0000E94562A8091820086958695869580FF70
:101BF00006C083E991E0609169000E94662A8091A5
:101C0000820082958F7080FF08C084EA90E064E9CA
:101C100071E043E050E00E94562A10928800109232
:101C2000820082E390E00E94580C80918500882316
:101C300009F043C220918B00213009F046C0809109
:101C4000960090919700019690939700809396004C
:101C5000089709F08BC0109297001092960080911F
:101C60008E00882331F480918D0090E00E946705FA
:101C70000AC0823061F420918D008FEF90E0821BCA
:101C800091090E94670590E00E943E0609C08130DC
:101C900011F0833029F480918D008F5F80938D0047
:101CA00080918D008F3F69F410928D0080918E009D
:101CB0008F5F80938E00843008F458C010928E009D
:101CC00055C08F5F80938D0051C0822F835082302A
:101CD00008F04CC080919400909195001816190658
:101CE00034F40197909395008093940037C023308B
:101CF00029F480919000882339F428C0243049F5D4
:101D0000809190008F3F29F180918D008F5F8093AB
:101D10008D00883018F110928D0080918B00909189
:101D20009000833011F4915001C09F5F9093900018
:101D3000209190008FEF90E0821B91096BEE7FEF76
:101D40000E94B528645F60938F0008C010928F00D6
:101D500003C08CE080938F0010928D0080919000E2
:101D600090E00E94670590E00E943E0680919800F6
:101D7000813009F4A2C18091990090919A00019656
:101D800090939A0080939900889708F496C11092D6
:101D90009A001092990080918400813009F08DC1E1
:101DA00080918C00813039F580919100909169008B
:101DB0008F5F809391008150891708F47EC1109243
:101DC000910080919B0090E0FC01EE0FFF1FE80F57
:101DD000F91FA7EAB0E0ED50FF4F83E001900D92AC
:101DE0008150E1F76091A7007091A8008091A9004F
:101DF0000E94250760C1823009F07AC0909192005C
:101E000080916800981708F03FC000E013E031C0EF
:101E1000802F90E0201778F4FC01EE0FFF1FE80FF1
:101E2000F91FE555FF4FA7EAB0E083E00D9001925E
:101E30008150E1F71DC0DC01AA0FBB1FA80FB91F1D
:101E400080919B0090E0FC01EE0FFF1FE80FF91F4F
:101E5000A555BF4FED50FF4F83E001900D9281508B
:101E6000E1F7019FC001112485559F4F0E94810514
:101E70000F5F8091680020919200081748F22F5F51
:101E8000209392000E94EF0690919200809168004A
:101E90009817C1F49F5F9093920080919B0090E00F
:101EA000FC01EE0FFF1FE80FF91FA7EAB0E0ED50AD
:101EB000FF4F83E001900D928150E1F787EA90E0B7
:101EC0000E9481059091920080916800891708F026
:101ED000F4C0809193008F5F80939300909169008C
:101EE000891708F4EAC01092930010929200E3C0A0
:101EF000833059F4809191008F5F809391008150DD
:101F000009F0DBC00E948107D8C090916900209140
:101F10009B00843009F081C0209392008FE0989F4D
:101F2000C001112466E07FEF0E94B5287B0184E1A7
:101F300090E0E80EF91EDD2433E0C32E3DC082E9B7
:101F400090E00E94F505809192008C9DC0011124C3
:101F50008E01000F111F0C0F1D1FB80164557F4F1C
:101F60008C509F4F4E2D0E942006809192008C9D98
:101F7000C0011124B80165557F4F8D509F4F4E2DE4
:101F80000E942006809192008C9DC001112403556F
:101F90001F4F8B509F4FB8014E2D0E942006DC9C96
:101FA000C001112485559F4F0E94810580919200A8
:101FB0008F5F80939200D39480916800CD2DD0E004
:101FC000D81608F4BCCFFE01EE0FFF1FEC0FFD1F6B
:101FD000A7EAB0E0E555FF4F83E001900D928150F4
:101FE000E1F70E94EF06209193002E0D20939300BD
:101FF00030E08FEF90E08E199F092817390708F419
:102000005CC01092930080919B008F5F80939B0037
:102010008BE990E00E94F50550C0892F90E06BEFAE
:102020007FEF0E94B5288B010D5C1F4F83E0F82ED7
:102030002F9DC00111248C509F4F68EA70E0402F03
:102040000E94200680919B008F9DC00111248D501D
:102050009F4F67EA70E0402F0E94200680919B000E
:102060008F9DC00111248B509F4F69EA70E0402F73
:102070000E9420066091A7007091A8008091A9009D
:102080000E94250780919B0090E0FC01EE0FFF1F4E
:10209000E80FF91FED50FF4F91818091A80098172C
:1020A00061F490818091A700981739F49281809112
:1020B000A900981711F40E94E405DF91CF911F91B8
:1020C0000F91FF90EF90DF90CF9008950E94D70876
:1020D00008950F931F938C010E9458040E94DE21E3
:1020E000F80182A70E94E720F80183A781E084A776
:1020F00082E085A783E086A717A683E380831F91EC
:102100000F910895CF93DF93EC010E94190B898101
:10211000823839F490E08A81811191E0892F0E9400
:10212000E121DF91CF910895FC018381813261F03B
:102130008232D9F0823081F583EA91E0909379057B
:10214000809378058BE308958281882319F081308C
:1021500019F503C085EB91E002C08EEC91E09093FD
:1021600079058093780589E00895848195810097A9
:1021700019F0019789F408C082E191E09093790504
:102180008093780580E4089582E591E09093790545
:102190008093780581E5089580E00895FC018091A1
:1021A0002301813041F4613031F580810E941C248B
:1021B0001092230120C08230C9F48181882369F400
:1021C0006830B1F482818F3F29F481E090E060E0D3
:1021D0000E94772A0E948D120EC0813049F48281BC
:1021E000813009F080E00E94CC2005C0843019F4D1
:1021F000CF010E94821081E008950F931F93CF9327
:10220000DF93EC010E94132288818076803209F0EE
:10221000D8C00981013009F08CC08A819B8122E0FD
:102220008030920741F48DE495E090937905809396
:10223000780588E0C7C043E08230940749F48E8176
:102240009F818538910509F0BCC000935801B9C041
:102250008150934009F0B5C02E813F81243631056D
:1022600059F405E211E0C8010E9469101093790544
:102270000093780583E3A6C025363105B1F40E94AA
:10228000A820882331F080E00E94CC201092240105
:1022900005C081E00E94CC200093240184E291E0FB
:1022A00090937905809378058AC0C9018957904039
:1022B0000497A8F480E48093740588E790E0AC016B
:1022C000249FC001259F900D349F900D1124885BA1
:1022D000924D909379058093780588E773C0C90182
:1022E000885A90400C97A8F480E48093740588EA9B
:1022F00090E0AC01249FC001259F900D349F900D6C
:10230000112480549640909379058093780588EA4B
:1023100059C02639310559F480E48093740580E86A
:1023200095E6909379058093780580E84BC0822FDD
:1023300049C0093039F58A819B8152E08030950788
:1023400031F48C819D81892BE1F581E017C023E078
:102350008230920779F480915801813041F48FE105
:102360008983CE010E94821084E080932301109221
:10237000580106C08150934021F582E080932301EB
:102380008FEF20C0023019F48091220114C00A306E
:1023900031F40E9417228B818093220112C00330F6
:1023A00031F48B81882369F410926B000BC00B30E1
:1023B00041F480916B00809378051092790581E05B
:1023C00001C080E0DF91CF911F910F91089581307E
:1023D00011F090E006C090E0613009F091E081E0FA
:1023E0009827892F08958FEF87BB88BB1ABA94B3BB
:1023F0009B7B94BB8F988BBB85B38C6F85BB979A67
:10240000089521E030E002C0220F331F8A95E2F7E1
:1024100027BB209528BB84E18A95F1F70895282FE2
:10242000883058F449B381E090E002C0880F991FCA
:102430002A95E2F74095482318C08E3078F443B3CC
:102440008FE090E0821B910921E030E002C0220F72
:10245000331F8A95E2F74095422307C08E3011F072
:1024600040E003C040B340954078842F08956F92B8
:102470007F928F929F92AF92BF92CF92DF92EF9214
:10248000FF920F931F93CF93DF93782EA92E6B01AA
:1024900000E010E081E0882E912C66246394802F68
:1024A0000E940112C401002E02C0880F991F0A94D5
:1024B000E2F7E82EB82EB094272D3A2DC901EC0191
:1024C000FF248F2D0E940F12282F98818E2D892393
:1024D00019F0222329F008C0222331F09E2901C0DF
:1024E0009B219883F6016082F3942196FFE0FF160A
:1024F00041F70F5F1F4F0830110589F6DF91CF912B
:102500001F910F91FF90EF90DF90CF90BF90AF9011
:102510009F908F907F906F9008950E946B078B9A89
:1025200028E088E190E00FB6F894A89581BD0FBE31
:1025300021BDFFCF8A98929A089592988A9A089519
:102540008B98939A089593988B9A089580935A0143
:10255000F894809156058F7E80935605809156059C
:1025600088608093560578940895F8948091560574
:102570008B7F8093560578948091590108958091BE
:10258000560590E096958795969587958170089564
:102590008091560590E034E0969587953A95E1F75D
:1025A000817008958FEC82BF80915505833000F5CE
:1025B0000E94A0128091560580FF23C0829BA3C079
:1025C00080915505813031F0813040F0823009F042
:1025D000F6C006C0839902C08DE096C082E094C028
:1025E0008091560583FFEBC00E94A31284E28CC049
:1025F000809155058A3108F079C08091560580FD9B
:1026000008C0809156058160809356050E949A12F9
:102610000895829B76C080915505873140F48031C2
:1026200018F58D3061F08F3009F055C00CC088313D
:10263000E1F1883158F1893109F04DC049C08091EC
:1026400056058D7F4DC0809156058B7F8093560532
:10265000839B05C080E88093590181E014C01092EB
:102660005C011092590137C0809159018695809381
:102670005901839B30C08091590180688093590132
:1026800080915C018F5F80935C0125C0839B05C0B6
:1026900080915C018F5F80935C0180915C0180FD83
:1026A0001AC080915605826010C0839905C0809140
:1026B00056058260809356058091560581FD0BC0BA
:1026C0000E94A3128091560584608093560503C032
:1026D0000E94A0126CC00E949D12809156058E7FB0
:1026E00080935605809155058F5F0EC080915505EA
:1026F0008F3208F064C08091560580FF10C0829927
:1027000006C00E94A01281E0809355050895809133
:1027100056058E7F809356050E949D1208958091E4
:1027200056058160809356050E949A128091550546
:102730008C3228F4853280F48432E1F507C08D3282
:1027400099F18D32E8F08E32A9F531C080915A01AD
:1027500080935B0110925C0180915B0180FF08C057
:102760000E94A01280915C018F5F80935C0102C087
:102770000E94A31280915B01869580935B011AC031
:1027800080915C0180FF03C00E94A31202C00E94DE
:10279000A01280915605877F80935605809156053B
:1027A00080618093560506C00E94A01203C010925B
:1027B00055050895809155058F5F809355050895BF
:1027C0001092550581E1809356050E949A120E944D
:1027D000A01282E00E94772580E062ED72E10E9403
:1027E0009F258FEC82BF89B7816089BF0895282F0C
:1027F0008F3F31F41092600181E08093650108956C
:102800008E3F21F08D3F29F41092600110926501F6
:10281000089580916501882351F080916001E82F2F
:10282000F0E0ED5CFD4F20838F5F8093600180912D
:10283000610190916201019668EC70E00E94B528F8
:10284000FC019093620180936101809163019091FA
:1028500064018E179F0759F4009719F487EC90E0F4
:1028600001C0019790936201809361010895E65938
:10287000FE4F2083089540E0209163013091640170
:1028800080916101909162012817390709F441E0B4
:10289000842F0895109264011092630110926201D6
:1028A00010926101109260011092660110923D0237
:1028B00010923E0210923F02109240020895282F7B
:1028C000882339F08CEF90E0909368018093670142
:1028D00002C010925F012093690108950E943B1489
:1028E00090E0882309F491E0892F0895FF920F93D7
:1028F0001F93182F882309F4A0C08D3B08F09DC0BA
:10290000A82FB0E0FD01E651FE4F0491662309F4C3
:1029100063C08093320210923D0210923E021092E8
:102920003F021092400210925905AF5BBD4F8C914F
:10293000F82E81FF2DC0163419F01834F1F50EC0B1
:102940008FEF0E94F71380EE0E94F71382E10E943E
:10295000F71380EE0E94F7138CE727C08DEF0E94DB
:10296000F71381EE0E94F71384E10E94F71387E7C3
:102970000E94F71381EE0E94F71380EF0E94F71375
:1029800084E10E94F71380EF0E94F71387E710C0DD
:1029900082FF02C0802F0CC08FEF0E94F713F0FE61
:1029A00003C080EE0E94F713802F0E94F7138EEF72
:1029B0000E94F7138CEF0E94F713F5FE40C0809140
:1029C0005F018823E1F581E080935F01173411F402
:1029D0000E947B1C8BEF2EC080913202811711F474
:1029E00010926001E12FF0E0EF5BFD4F808181FFED
:1029F00013C0163421F580EE0E94F71380EF0E9479
:102A0000F7138CE70E94F71380EE0E94F71380EF14
:102A10000E94F71382E10BC082FD11C080FF03C04A
:102A200080EE0E94F71380EF0E94F713802F0E9420
:102A3000F7138CEF0E94F71302C080E001C081E021
:102A40001F910F91FF90089580914A05882329F4E2
:102A500081E080934A050E94502708951F93162F06
:102A60008E3F11F0809358050E94A61210935905CD
:102A70001F9108950E941A1A08958F929F92AF9203
:102A8000BF92CF92DF92EF92FF920F931F9388E055
:102A9000809359050E94E013E1E4F2E0119222E0F4
:102AA000E13EF207D9F720ED32E006C0FC01EF5B12
:102AB000FD4F808182608083F901849190E02F5FD7
:102AC0003F4F009799F723ED32E006C0FC01EF5B22
:102AD000FD4F808184608083F901849190E02F5FB5
:102AE0003F4F009799F727ED32E006C0FC01EF5BFE
:102AF000FD4F808188608083F901849190E02F5F91
:102B00003F4F009799F72CED32E006C0FC01EF5BD8
:102B1000FD4F808181608083F901849190E02F5F77
:102B20003F4F009799F72AE033E006C0FC01EF5BC6
:102B3000FD4F808180618083F901849190E02F5F57
:102B40003F4F009799F729E133E006C0FC01EF5BA6
:102B5000FD4F808180628083F901849190E02F5F36
:102B60003F4F009799F70E944A1486E090E00E9438
:102B70004E2A8F3F09F481E060915E01662319F4CB
:102B800080935E0106C0681721F086E090E00E9405
:102B9000662A8CE690E00E9494198EE690E00E94EE
:102BA0006B260E94DC180E94591D789499249394F6
:102BB000A5E0AA2EB12CC12CD12CF6E98F2E809144
:102BC000560581FF07C0F894809156058D7F80934C
:102BD000560578940E94BF12882309F4DAC08091C8
:102BE0006701909168018C3F910529F00E943B1488
:102BF000882309F4CEC00E94B512182F8093E102F9
:102C000080E00E945F1460915905623009F459C058
:102C1000633018F4613039F44EC0663009F4A5C051
:102C2000673009F457C0133F79F1143F70F41E3E2A
:102C3000D1F01F3E20F41D3E09F0A7C022C0103F76
:102C4000E9F0123F09F0A1C010C0163F39F1173F5B
:102C500020F4143F09F099C01AC01E3F61F01F3FD5
:102C600009F093C005C08EEE92C08AEF64E08FC079
:102C70008AEF68E08CC08091580589C08AEF62E0D5
:102C800086C08AEF66E083C08AEF67E080C08AEF83
:102C900060E00E942E150E9424157BC09092700067
:102CA000A0927100B0927200C0927300D092740032
:102CB0000E944A146AC0153F09F467C08AEF61E0B8
:102CC00066C00E944A14112311F060E001C063E065
:102CD0008AEF5DC0812F90E09C0120763070E5E0A6
:102CE00035952795EA95E1F7209370009C012770B0
:102CF00030703093E3022093E2028871907073E0A9
:102D0000959587957A95E1F79093E5028093E40293
:102D100041E050E020E030E004C0440F551F2F5F39
:102D20003F4F28173907CCF34093E8025093E9024C
:102D30003093E7022093E6028091E2029091E30251
:102D40009C01429FC001439F900D529F900D112402
:102D5000AA2797FDA095BA2F8093710090937200D7
:102D6000A0937300B093740010C00E94241580914A
:102D7000E102982F80E090FD84E091FD816092FD5A
:102D800082600E9461050E94B4088AEF60E00E94A0
:102D90002E150E94C812882309F411CF8091690171
:102DA000882309F00CCF80915905843009F401C1C2
:102DB000853030F4882371F0833009F000CFF7C0FC
:102DC000883009F4FBC08C3009F47CC0853009F0F0
:102DD000F6CEF2C00E943B14882311F00E943A15EF
:102DE00020916301309164018091610190916201B1
:102DF0002817390711F480E00EC0C901019668EC6C
:102E000070E00E94B528FC019093640180936301F7
:102E1000E659FE4F8081282F30E0309368012093DF
:102E200067012B3F310521F481E00E945F14C7CE7A
:102E30002C3F310509F4C3CE232B61F060E00E94E2
:102E40002E1510923D0210923E0210923F021092F7
:102E50004002AAC080916001882309F4A5C0209196
:102E60003D0230913E0240913F02509140022F5F5F
:102E70003F4F4F4F5F4F20933D0230933E024093B0
:102E80003F025093400280917000889DC001112440
:102E90008A519F4FAA2797FDA095BA2F2817390767
:102EA0004A075B070CF480C010923D0210923E026C
:102EB00010923F0210924002109266018CE08093C3
:102EC000590572C080916601882311F40E943A1559
:102ED00080916001882321F00E943B14882359F4DB
:102EE0001092590510923D0210923E0210923F023C
:102EF0001092400264CE80913D0290913E02A091DA
:102F00003F02B09140020197A105B10521F08091E7
:102F100066018823A9F090916601E92FF0E0ED5C4D
:102F2000FD4F80819F5F909366016CE00E942E159B
:102F300060916001809166010E94952890936601DE
:102F4000E0903D02F0903E0200913F02109140025D
:102F50000894E11CF11C011D111D6091710070911C
:102F6000720080917300909174002AE030E040E09C
:102F700050E00E9476286D5F7F4F8F4F9F4F2091CA
:102F80005E0130E040E050E00E9476289B01AC01F9
:102F9000C801B7010E94EA2860933D0270933E0287
:102FA00080933F02909340020E94D12008CE82E09D
:102FB00008C08BEA65E006C083E803C00E944A149B
:102FC0008AEA60E00E942E15FACD8091750008957E
:102FD00090910903891711F090E006C090E080916C
:102FE0000A03681709F491E0892F08958FE7809309
:102FF000090380930A0308958E3F11F481E00EC007
:10300000883F11F482E00AC0863F11F483E006C0D5
:103010008B3F19F410927600089583E68093760032
:10302000089589EF92E008958AEE92E008950E9453
:103030001118AAEEB2E0FC018FE001900D928150D0
:10304000E1F781E080937500E9EFF2E08081882369
:1030500019F01092750005C0319683E0E830F8074A
:10306000A9F70E94E517882311F00E94A01B08957C
:10307000DF93CF930F92CDB7DEB7198289EF92E03D
:10308000BE016F5F7F4F0E9437128981882319F03C
:103090001092080307C080910803843618F48F5FEC
:1030A0008093080390E0809108038A3009F491E04E
:1030B000892F0F90CF91DF9108950E9438180895BD
:1030C0008F929F92AF92BF92CF92DF92EF92FF9238
:1030D0000F931F93DF93CF930F92CDB7DEB78091FD
:1030E0007600833609F05AC00E94E120882311F44B
:1030F000DD2403C00E94E120D82E0E9411187C011B
:1031000000E081E0A82EB12C8D2D82508983F7013B
:1031100080818823D9F188249924C82C9501082C12
:1031200002C0220F331F0A94E2F7F7018081822345
:1031300031F18D2D602F482D0E94F51C182F0E9413
:10314000DE20882329F4812F61E00E94D31B182FF1
:103150001E3F11F481E00EC0183F11F482E00AC056
:10316000163F11F483E006C01B3F49F4F981F230A9
:1031700030F480E0C092090300930A030FC0089462
:10318000811C911C88E08816910439F60F5F089421
:10319000E11CF11C0F3009F0BACF8D2D0F90CF91AB
:1031A000DF911F910F91FF90EF90DF90CF90BF9034
:1031B000AF909F908F9008958FE0EAEEF2E0DF01EC
:1031C000982F1D929A95E9F7E9EFF2E0DF011D9241
:1031D0008A95E9F708950E94F3118DE08093080322
:1031E0000E94F617089586E084BD80915A0590915B
:1031F0005B05019690935B0580935A05089598EAC4
:10320000899FF0011124E050F849E49180E0E150F9
:10321000EE3F08F481E0089580910B03089580E06B
:103220000E949225089510920B030E940F19089591
:103230000F931F9310925B0510925A0510920D0385
:1032400010920C0308EA20910E0330910F03283AE4
:1032500031051CF00E94131930C0E0917700E09F07
:10326000A0011124C9010196240F351F20503849AF
:10327000F9012491019690930F0380930E03019717
:10328000480F591F40505849FA011491822F81501C
:103290008E3F78F4822F0E94681F912F9F7799F2BA
:1032A0008BE4989FC001112490930D0380930C032D
:1032B00004C00E9413190E94AC1F1F910F91089522
:1032C00080910B03882369F020915A0530915B05AA
:1032D00080910C0390910D032817390714F00E9478
:1032E00018190895982F80910B03882391F481E099
:1032F00080930B039093770010920D0310920C03B0
:1033000010920F0310920E030E94181985B5836066
:1033100085BD08950E94972585E063EF78E10E94BE
:103320009F250E940F190895909311038093100315
:103330000895E0911003F09111030190F081E02DC8
:10334000099508950E9499190895DF92EF92FF92CE
:103350000F931F93182F062FE42ED22E642F422F87
:10336000202F0E945309112309F45EC00E94E1201E
:10337000882311F4FF2403C00E94E120F82E8E2D33
:103380006D2D0E94E8178823B9F08F2D6D2D4E2DDD
:103390000E94F51C182F002331F061E00E94D31B1E
:1033A0000E94FC1705C080E00E94FC170E94F617DF
:1033B000812F865D8831C0F5812F6E2D4D2D202FF8
:1033C0000E941621F82E812F602F0E94ED1B812F65
:1033D000602F0E948C1C002311F00E94301C0E9460
:1033E000681D882349F0812F6E2D4D2D202F0E94BE
:1033F0008A1D182F8823C1F0FF20B1F0812F0E9471
:10340000181D882389F4002329F0812F0E942B1E88
:10341000882351F4812F602F0E94F22160E00E94E6
:10342000D31B602F0E9499191F910F91FF90EF906D
:10343000DF9008952F923F924F925F926F927F920A
:103440008F929F92AF92BF92CF92DF92EF92FF92B4
:103450000F931F93DF93CF9300D000D0CDB7DEB78B
:103460000E943D208823E1F00E94AF1F8823C1F411
:103470000E947220092F813019F4892F61E00EC05B
:10348000892F8756883040F40E947B1C182F802F8C
:103490000E94271D182321F4802F60E00E949919B3
:1034A0000E945D18882309F4AAC00E946018282E83
:1034B0000E941118182F092F0E9414183C01212F67
:1034C000302FC9014C018FE0289E6001112482E158
:1034D00093E0C80ED91EEE24FF243E2CD3018C911C
:1034E000882329F4F4018081882309F475C01C82A3
:1034F0001B82C7018E5E9C4F9A838983AB8021E03B
:10350000422E512C0A2C02C0440C551C0A94E2F79E
:10351000B42CD4011C91142109F011E090E0F301C6
:1035200080818B2109F091E0911709F44DC00E9430
:10353000A820882341F0112309F446C0832D6A2D69
:103540000E94AB2049C0822D632D4A2D0E94F51C9C
:10355000082F612F0E94F420802F0E9404218823CD
:1035600099F1112339F0D6018C918B298C93802FFE
:1035700061E026C0E981FA8110E0808190E0842139
:103580009521892B29F41F5F3F961430B1F7122D36
:10359000812F632D4A2D0E94F51C212F30E0F90167
:1035A00094E0EE0FFF1F9A95E1F7E21BF30BEE0D8F
:1035B000FF1DEE5EFC4FB09490819B21908360E0F4
:1035C0004A2D232D0E94A519EB81FC813196FC83A5
:1035D000EB83389709F092CF0894E11CF11C089412
:1035E000611C711C0894811C911C0894C11CD11C85
:1035F000FFE0EF16F10409F070CF0E9417180F904A
:103600000F900F900F90CF91DF911F910F91FF902E
:10361000EF90DF90CF90BF90AF909F908F907F9072
:103620006F905F904F903F902F900895982F8091CA
:103630004F0380FF0FC0993611F49AE60BC09A36FB
:1036400011F499E607C09D3611F49EE603C09E363C
:1036500009F49DE6892F089580E00E94711C88235B
:1036600019F01092500308950E947B1C982F8091AE
:103670004E039817A1F09C3231F0903E21F098361D
:1036800011F0943A41F4109254031092530382E0E3
:103690008093500302C01092500390934E034091C8
:1036A00050034423B1F18091530390915403019648
:1036B000909354038093530320915103309152030C
:1036C0002817390734F54230E1F482E390E00E9494
:1036D000580C80914F0380FF04C08E7F80934F036E
:1036E00010C0816080934F0384EF91E02CE231E0C1
:1036F000F9013197F1F70197D9F784E690E00E943C
:10370000580C88E090E060914F030E94662A109266
:103710005003089588E090E00E944E2A80934F0362
:103720008F3F11F410924F0388E893E10E946226C4
:103730009093520380935103089580915603089506
:1037400010925503109256030895E82FF0E0E651C9
:10375000FE4CEE0FFF1FE4918E2F0E94F21C089585
:10376000E82FF0E0EE0FFF1FEB52FC49E4918E2FA3
:103770000E94F21C08950F931F93082F865D8831D5
:1037800010F0102F0CC0802F0E94A51B182F0E9434
:10379000181D882321F0802F0E94B01B182F812F25
:1037A0001F910F9108951F93182F865D883190F413
:1037B000662341F40E949D1B882361F0809155038C
:1037C000811721F4812F0E94A51B03C0812F0E9425
:1037D000BB1B182F812F1F9108951F93182F865DF3
:1037E000662399F0883168F40E94E517882349F030
:1037F00080915503882329F41093550310925603A2
:103800002DC081E08093560329C0883138F510918E
:103810005503112319F10E949D1B8823F9F4812F70
:103820000E94B01B182F0E94681F812F0E94681FE2
:103830001092550310925803109257030E94791D5D
:10384000882361F0812F60E040E021E00E948A1D22
:10385000812F60E040E020E00E948A1D1F910895C2
:103860001F93109155031123D9F00E949D1B8823AB
:10387000B9F0812F0E94A51B61E00E94A2190E944D
:10388000791D882349F0809155030E94A51B60E0B3
:1038900040E021E00E948A1D1092580310925703C5
:1038A0001F910895809155038823A9F080915603B4
:1038B000882389F48091570390915803019690933F
:1038C000580380935703855F914028F081E08093EF
:1038D00056030E94301C089580916103811181E09C
:1038E0000895863010F080E00895E82FF0E0E75A60
:1038F000FC4F8081089580915F03089510926003CA
:1039000010925F031092610386E0E9E5F3E0DF01C6
:103910001D928A95E9F708950F931F93162F0E9421
:10392000BB1B082F8756112329F1883038F41091DA
:103930005F03802F0E94271D182B25C080916103F3
:103940008F5F80936103809160038630A8F50D3B03
:1039500098F589E593E0602F0E94101F8F5F9F4FBD
:1039600059F580916003E82FF0E0E75AFC4F00839F
:103970008F5F20C0883050F410915F03802F0E9429
:10398000271D8095182310935F0316C08091610353
:1039900081508093610389E593E0602F0E94101F9E
:1039A000BC0197FD09C089E593E00E942A1F809120
:1039B00060038150809360031F910F91089598E7F1
:1039C000899FF0011124E050FA4970E083E0660F0E
:1039D000771F8A95E1F7E60FF71FE40FF11DE491D9
:1039E0008E2F08950E94161B0895FF920F931F9328
:1039F000182F062FF42E0E94791D882361F0812F45
:103A0000602F4F2D0E94DF1C182F0E946B1D8823F2
:103A100041F010E006C0812F602F4F2D0E94DF1C67
:103A2000182F812F0E94F21C1F910F91FF90089573
:103A3000982FEEEDF1E08491981711F481E008954C
:103A4000319681E0E23EF807B1F780E00895E82F73
:103A5000F0E0E558FE4FE4918E2F089580916203C7
:103A6000089580916203882311F40E946B0781E01E
:103A7000809362030895809162038823C9F4809142
:103A800063039091640301969093640380936303AE
:103A90008053954768F010926403109263038091FD
:103AA00065038F5F809365038A3011F40E94311D96
:103AB000089580916203882311F00E9443091092B7
:103AC00062031092640310926303109265030895D9
:103AD00080916703089590E08D5B883108F491E050
:103AE000892F089590E0895C8C3008F491E0892F4B
:103AF000089590E08091B3038B3009F491E0892F11
:103B000008958091670308951092670381E0809380
:103B1000B20308950F931F93022F60E00E94D31BFE
:103B2000182F8D3B80F5002369F080916603883162
:103B300050F58F5F809366038AE693E0612F0E94C1
:103B40005C1F0EC08AE693E0612F0E94101FBC012B
:103B50008FEF6F3F7807B9F08AE693E00E942A1F43
:103B600080916903E82FF0E0EE57FC4F10838F5FE0
:103B700080936903803340F080916703882321F0AC
:103B80000E94841D01C010E0812F1F910F910895A4
:103B900090E3E2E8F3E0DF01292F1D922A95E9F78F
:103BA00010926903EAE6F3E0DF011D929A95E9F7C6
:103BB000109266038093680381E0809367031092FC
:103BC000B20388EC90E00E94580C88EE93E02CE25F
:103BD00031E0F9013197F1F70197D9F784E690E0E8
:103BE0000E94580C0895809168038C3078F460E34B
:103BF000869FB00111246B557E4F82E893E040E32D
:103C000050E00E94562A8FEF8093680308950F9327
:103C10001F93CF93DF93982F8C30C0F480E3989F4D
:103C2000C0011124EC01CB55DE4F8C010B521E4F0D
:103C3000CE010E944E2A982F81508E3F18F4892F72
:103C40000E94681F2196C017D10791F7DF91CF918D
:103C50001F910F9108951F93182F0E946B1D8823A9
:103C600071F10E943D20882301F5193C90F0195C08
:103C700080E3189FC00111248B559E4F0E944E2A4D
:103C800081508E3FD0F40E944720812F0E94071E52
:103C900014C01D5B812F0E94FF18882371F00E94C1
:103CA0004720812F0E94721908C00E94A91F8823F3
:103CB00031F00E946D200E94AC1F81E001C080E0C5
:103CC0001F9108958F929F92AF92BF92DF92EF92D1
:103CD000FF920F931F93DF93CF930F92CDB7DEB771
:103CE0008C01DD244E010894811C911C80E6A82ED5
:103CF00080E0B82E33C000D000D000D0EDB7FEB7C2
:103D00003196ADB7BEB712969C928E921197B38240
:103D1000A282800F911FDC018C91848315820E9406
:103D2000BC298DB79EB706960FB6F8949EBF0FBEFE
:103D30008DBF89810E94BE1F7C01882319F088E60F
:103D40000E94681F8F2D0E94681F8F2D0E94681F80
:103D5000EE2019F088E60E94681FD3948D2D90E024
:103D6000F80101900020E9F73197E01BF10B8E1765
:103D70009F0708F20F90CF91DF911F910F91FF9055
:103D8000EF90DF90BF90AF909F908F9008958091BB
:103D9000B203882399F00E94E517882379F00E94E6
:103DA0003D20882359F41092B2030E94F31D8FEF37
:103DB0008093680384E690E00E94580C089528EBF5
:103DC0003BE003C0F9013197F1F70197D9F7089566
:103DD0001F93162F0E944E2A90E002C0959587955A
:103DE0001A95E2F7809581701F9108950F931F93A4
:103DF000162F042F0E944E2A21E030E002C0220F2D
:103E0000331F1A95E2F7622F60956823002309F4A7
:103E1000622B87E090E00E94662A1F910F9108951F
:103E2000CF93DF93EC01DC010D900020E9F71197AF
:103E3000A81BB90B70E0AD010E944729009719F447
:103E4000EFEFFFEF03C0FC01EC1BFD0BCF01DF9197
:103E5000CF9108959B01FC0101900020E9F7319773
:103E6000E81BF90B6F5F7F4F680F791FE21BF30BA5
:103E7000820F931FAF010E945D290895FF920F9357
:103E80001F93F42E9B01DC010D900020E9F78C01BB
:103E9000060F171FA81BB90BA61BB70B2F5F3F4FB1
:103EA000820F931FB801AD010E945D29F801F082D5
:103EB0001F910F91FF900895462FDC010D90002077
:103EC000E9F71197A81BB90BBD010E943E1F089589
:103ED000282F8091E9039091EA0301966CE271E04A
:103EE0000E94B528FC019093EA038093E903809136
:103EF000E7039091E8038E179F0759F4009719F490
:103F00008BE291E001C001979093EA038093E9036B
:103F10000895E451FC4F208308952091E7033091E8
:103F2000E8038091E9039091EA032817390711F417
:103F300080E00895C90101966CE271E00E94B52805
:103F4000FC019093E8038093E703E451FC4F8081E8
:103F500008958091EB0308951092EB03089540E0DB
:103F60002091E7033091E8038091E9039091EA03FF
:103F70002817390709F441E0842F0895982F8156B6
:103F80008A3118F4292F2D5510C0892F81548A3178
:103F900020F4292F2D5332E009C0892F8153893015
:103FA00010F020E002C0292F235130E0892F90E04B
:103FB000FC01B097EF35F10508F048C0E65DFF4F12
:103FC000EE0FFF1F0590F491E02D09942EE141C002
:103FD0002FE13FC020E23DC021E23BC022E239C0D8
:103FE00023E237C024E235C025E233C026E231C0E7
:103FF00027E22FC02CE22EC02DE22CC02DE229C0DA
:104000002EE228C02EE225C02FE224C02FE221C0DC
:1040100020E320C020E31DC021E31CC021E319C020
:1040200023E318C023E315C024E314C024E311C024
:1040300025E310C025E30DC026E30CC026E309C02C
:1040400027E308C027E305C028E304C0222311F4B6
:1040500028E332E0832F922F089527E2FBCF0F93BE
:104060001F9304EB13E090E0B8014AE050E00E9497
:104070006F29C8011F910F9108950E94AF1F8823D7
:1040800019F481E090E008950E940C1908950E94AF
:10409000AF1F882339F080E3E7EBF3E0DF011D92E7
:1040A0008A95E9F708951092EA031092E9031092B5
:1040B000E8031092E7038CE291E0ECEEF3E0DF011D
:1040C0009C011D9221503040E1F780E3E7EBF3E0E3
:1040D000DF011D928A95E9F708950E9453200E94FE
:1040E000131908951F93CF93DF930E948D1F182FEC
:1040F0000E946B1D882361F00E946D20812F8D5BD3
:104100000E94721981E08093EB0382E010E01BC0F3
:10411000C7EBD3E0112331F480E3FE0111928A95BD
:10412000E9F70AC0CE01612F0E94101FBC0197FD64
:1041300005C0CE010E942A1F82E005C0CE01612F7A
:104140000E945C1F81E0912FDF91CF911F91089514
:10415000809118050895EF92FF920F931F93E82E18
:10416000F62E03E610E0C8010E94621E8F2D0E9409
:104170002F200E94621E85E690E00E94621E8E2D16
:104180000E942F200E94621EC8010E94621E1F9181
:104190000F91FF90EF900895809318050E94B40846
:1041A00008950E94C71E0E942C1B0E9460190E9445
:1041B000BE210E94521C0E94110D08958091190584
:1041C000089580911A05089580911B0508958091A6
:1041D000210508950895FC018081823011F483E067
:1041E00001C081E080830895662369F0843F29F44B
:1041F0008FE195E00E94EB200895833F21F480E257
:1042000095E00E94EB200895982F80911F05823041
:1042100059F080912005823029F49A3629F080E007
:104220009E3619F081E0089580E008950F931F9362
:10423000022F0E94BB1B182F0E94181D882309F013
:1042400079C0002309F469C01C3F41F0173F31F0E9
:1042500080911905882341F11A3231F580911A05B0
:1042600080931B051A3299F0882319F41C3F59F4E6
:1042700004C01C3F21F4823051F082E005C0173F9A
:1042800031F4833021F083E080931A0502C010924C
:104290001A050E94B40880911A0580931B0580E0DE
:1042A0001A3209F048C042C080911C05882361F091
:1042B000812F0E94721D882339F0195C10937800B9
:1042C00081E080931D0536C0193221F481E080938E
:1042D000190531C0153F71F480911E0591E08927C1
:1042E00080931E05882319F40E944C0923C00E9464
:1042F000760720C0123F59F40E94811D882319F0CF
:104300000E94841D17C081E080931C0513C0812F7B
:10431000609119050E94D80A0EC01C3F59F019324D
:1043200019F41092190502C0123F11F081E003C088
:1043300010921C0580E01F910F910895FC0180816F
:104340008130A1F482E0808382E390E00E94580CE7
:1043500084EF91E02CE231E0F9013197F1F7019718
:10436000D9F784E690E00E94580C0895833029F430
:10437000108284E690E00E94580C08950E94E51790
:10438000882341F08FE195E00E949E2180E295E034
:104390000E949E210E94E517882379F080911D05D7
:1043A000882359F010921D05809178008F3F29F0E5
:1043B0000E94C81D8FEF8093780008958091230597
:1043C0000895482F8093230587E090E063E00E94E2
:1043D000F61E089587E090E063E00E94E81E809357
:1043E000230508950F931F93182F062F8932B9F4D0
:1043F0000E94DE21882399F0002351F00E947B1C4B
:10440000823011F0803259F481E08093220506C099
:1044100080912205882319F01092220515E3812F3F
:104420001F910F91089581E080934A05089581E0DE
:104430008093280510922905809324050895982FCC
:1044400081578A31B0F481E080932A05662369F0B0
:10445000E92FF0E0EE0FFF1FE855FE4F8591949194
:1044600090932C0580932B05089510922C051092A3
:104470002B050895982F81578330B0F481E0809305
:104480002D05662369F0E92FF0E0EE0FFF1FE855D8
:10449000FE4F8591949190932F0580932E0508955A
:1044A00010922F0510922E050895809125058111F7
:1044B00081E008950F931F93082F81508C3B08F0E3
:1044C00059C080578A3108F455C081E08093250592
:1044D000802F8756662341F1883038F410912605E5
:1044E000802F0E94271D182B28C080912705863019
:1044F00008F040C0802F8D58823128F4E02FF0E082
:10450000EF5CFD4F049182E395E0602F0E94101F45
:104510008F5F9F4F79F582E395E0602F0E945C1FCB
:10452000809127058F5F24C0883050F410912605B4
:10453000802F0E94271D80951823109326051AC0EE
:10454000802F8D58823128F4E02FF0E0EF5CFD4F92
:10455000049182E395E0602F0E94101FBC0197FD3B
:1045600009C082E395E00E942A1F809127058150AF
:10457000809327051F910F9108951F93182F66238D
:1045800051F061E00E945A22812F61E00E941F22B7
:10459000812F61E009C060E00E945A22812F60E013
:1045A0000E941F22812F60E00E943A2281E01F9129
:1045B00008952F923F924F925F926F927F928F92C7
:1045C0009F92AF92BF92CF92DF92EF92FF920F93A2
:1045D0001F93DF93CF9300D00F92CDB7DEB782B396
:1045E000837F82BB81B3837F81BB0E942E248B9A01
:1045F00020E048EB5BE0CA010197F1F72150D9F7C1
:104600008B9889E790E00E9494198BE790E00E94D4
:104610006B2686E0E2E3F5E0DF011D928A95E9F77B
:10462000109227051092260510922C0510922B054A
:104630007894DD24EE24FF2473E0972E64E0862E28
:104640001E010894211C311C5DE4A52E55E0B52EF9
:1046500048E0C42E32E0432E512C4A0C5B1C22E36E
:10466000622E25E0722E80917705882351F01092FA
:104670007705109224050E94591DDD24EE24FF24A5
:1046800020C080912405882339F0B1E0B0937705EC
:104690000E94591DDD2415C0DD2099F487010F5FAC
:1046A0001F4FE9EEEE16E3E0FE0654F00E94E51718
:1046B000882331F00E94311D7801DD24D39401C09C
:1046C00078010E943C248091670584FF6CC0809132
:1046D0002A05882331F480912D05882311F40E9446
:1046E0001A1A80912505882309F441C080914A0552
:1046F000882309F4B8CFDD2001F1F89422B331B357
:10470000929A939881B38C6081BB88EE93E0ECE23F
:10471000F1E03197F1F70197D1F782B3882582BB99
:1047200082B38C2582BB88E293E20197F1F722BB2A
:1047300031BB78941092250596CFD501EC2D1D92B2
:10474000EA95E9F78091260580934D0510924E0574
:1047500040912705C201B30150E00E9454298DE425
:1047600095E068E00E947225109225051AC080919C
:104770002805813081F4F2E0F0932805D501EC2D75
:104780001D92EA95E9F78DE495E068E00E947225B4
:104790000E94DC1806C080912905823011F49092A5
:1047A00029050E94D1208091940584FF22C0809128
:1047B0002A05882369F080912B0590912C05998218
:1047C0009B838A83C10163E00E946D2510922A05B4
:1047D00080912D05882369F080912E0590912F05F9
:1047E00089829B838A83C10163E00E946D251092B8
:1047F0002D0580912805823009F035CF8091300554
:10480000909131059C012F5F3F4F309331052093EC
:104810003005883C910519F40E94502724CF293C8B
:1048200031050CF420CF89EC90E090933105809312
:1048300030059092280517CF0E9461050E94B408A8
:1048400080912905882319F482E080932905089531
:104850008BE48093680580939505089585B78860FB
:1048600085BF8BB780688BBF0E9428248AE5809320
:1048700067058093940508951F93CF93DF9360910C
:104880007A05635067FDAEC080917605CCE0D0E03C
:10489000C81BD109C258DA4F809175058D3209F0D5
:1048A0008EC0683009F09CC083EC80935C058AE57B
:1048B00080937D00109274058881807629F0CE0166
:1048C0000E94FD10282F68C09A8110926505898189
:1048D000882331F41092660585E695E022E058C001
:1048E000853019F490937B0550C08630D1F58B81CB
:1048F000813031F489B78B7F89BF8FE493E01DC08D
:10490000823029F18330F9F48A81882341F48DE1E2
:1049100093E0909379058093780524E01EC0813060
:1049200041F481E293E090937905809378052CE13E
:1049300014C0823089F48DE393E0909379058093DD
:10494000780522E10AC0813211F0823229F4CE01C9
:104950000E949410282F01C020E080E48093740509
:104960001BC0883019F48DE795E009C0893019F42F
:1049700090937D050AC08A3021F485E695E021E018
:1049800007C08B3011F40E94282485E695E020E0D2
:1049900090937905809378052F3F39F4888187FDBE
:1049A0002E8180E88093740506C08F81882319F4D6
:1049B0008E81821708F0822F80937E0011C0809133
:1049C000740587FF0DC0CE010E94CE108F3F21F4E9
:1049D0008EE180937D0004C0882311F010927E0048
:1049E00010927A0580917D0084FF46C080917E0000
:1049F0008F3F09F441C0182F893008F018E0811B5F
:104A000080937E0080915C0598E8892780935C05FF
:104A1000112321F120917805309179058091740559
:104A200086FF0AC0F901912FADE5B5E084918D9321
:104A300031969150D9F708C0D901912FEDE5F5E0F5
:104A40008D9181939150E1F7C90101961150810F29
:104A5000911D1F5F90937905809378058DE595E012
:104A6000612F0E94F001612F6C5F6C3019F08FEFA5
:104A700080937E0060937D0094E180B38C7031F46C
:104A80009150D9F710927B0510927305DF91CF9169
:104A90001F9108951F93CF93DF93DC01162FEA0136
:104AA000888184FF05C0898198E88927898302C0AD
:104AB0008AE58883AE014E5F5F4FFA01212F8D9109
:104AC00081932150E1F7CA01612F0E94F0011C5F20
:104AD0001883DF91CF911F91089544E955E00E941A
:104AE0004A25089547E655E00E944A25089593B760
:104AF000987F982B93BF089582E00E94772512BE7D
:104B000089B7816089BF08959EB5987F982B9EBD17
:104B1000089582E00E9484251DBC1CBC89B7846076
:104B200089BF089595B5987F982B95BD089584E029
:104B30000E94922514BC89B7806489BF089588308B
:104B400040F4E82FF0E0EE0FFF1FE85CFA4F7183AE
:104B500060830895883040F4E82FF0E0EE0FFF1FE7
:104B6000E85CFA4F1182108208958FB58D7F8FBD5A
:104B70008FB581608FBD19BC18BC08958FB5806258
:104B80008FBD8FB58F7E8FBD08958FB58F7D8FBD03
:104B90008FB58F7E8FBD089599BD88BD0895789497
:104BA0001F920F920FB60F9211242F933F934F93A2
:104BB0005F936F937F938F939F93AF93BF93EF9385
:104BC000FF9378948091380590913905892B29F0CD
:104BD000E0913805F09139050995FF91EF91BF916A
:104BE000AF919F918F917F916F915F914F913F9185
:104BF0002F910F900FBE0F901F90189578941F92D1
:104C00000F920FB60F9211242F933F934F935F9300
:104C10006F937F938F939F93AF93BF93EF93FF9384
:104C2000789480913A0590913B05892B29F0E09189
:104C30003A05F0913B050995FF91EF91BF91AF9136
:104C40009F918F917F916F915F914F913F912F91A4
:104C50000F900FBE0F901F90189578941F920F928F
:104C60000FB60F9211242F933F934F935F936F933F
:104C70007F938F939F93AF93BF93EF93FF9378941A
:104C80008091420590914305892B29F0E0914205DE
:104C9000F09143050995FF91EF91BF91AF919F91DD
:104CA0008F917F916F915F914F913F912F910F90D5
:104CB0000FBE0F901F9018958D98959A08958D9A14
:104CC000959808959C0180917F00882311F4359573
:104CD0002795C901089590934C0580934B0508953D
:104CE000E0914B05F0914C050190F081E02D099584
:104CF0000895F8940E945E051092490510924805A7
:104D000010924A0508951F93182F0E94EB18112343
:104D100099F010E0812F0E94AA251F5F1730D1F76C
:104D200089B78E7F89BF89B78B7F89BF89B78F7B12
:104D300089BF0E945C2602C00E945F261F910895D1
:104D4000AF92BF92CF92DF92EF92FF920F931F9399
:104D5000CF93DF930E94EB180E94DC1884E18A95C0
:104D6000F1F710E00E943818882319F41F5F1431FE
:104D7000C9F70E9411187C0100E031E0C32ED12C4C
:104D80002AE0A22E95E0B92EF70180818823E9F16F
:104D9000C0E0D0E096010C2E02C0220F331F0A940F
:104DA000E2F7F7018081822361F180E0602F4C2FD0
:104DB0000E94DF1C182F8C2F602F0E94E711882380
:104DC00011F41B3221F481E00E94CC201AC018316A
:104DD00021F481E080937F0014C0133119F4109204
:104DE0007F000FC01E3121F481E080935E0109C075
:104DF0001F3119F4B0925E0104C0103211F4A09278
:104E00005E012196C830D10529F60F5F0894E11C98
:104E1000F11C0F3009F0B8CF0E94171860917F0085
:104E2000623028F48CE090E00E94662A06C08CE094
:104E300090E00E944E2A80937F0080917F0088231B
:104E400019F081E080937F000E948A1B0E94EA2073
:104E50000E94EA210E947E1C80917F00882361F4D9
:104E60000E94792682E390E00E94580C80E00E9424
:104E700083260E943D1507C00E94792681E00E948A
:104E800083260E94D92281E090E0DF91CF911F918B
:104E90000F91FF90EF90DF90CF90BF90AF9008956B
:104EA0000E944B0C0E94310C0E948A190895ABE0BD
:104EB000B0E0EDE5F7E20C9409295C014B017A01C1
:104EC000FC0117821682838181FD08C06FEF7FEF9E
:104ED00008C142E050E0E40EF51E04C03E01089413
:104EE000611C711CF501D380F401D3FC8591D3FEC4
:104EF00081914F01882309F4F1C0853259F4D3FC24
:104F00006591D3FE61914F01653219F0062F10E0D3
:104F10001BC085E290E02BC0002309F4DFC088E6C7
:104F200093E0602F70E00E943C29892B39F4033212
:104F300011F4106103C00C3661F41068F401D3FC65
:104F40000591D3FE01914F0117FFE6CF002309F42D
:104F5000C5C081E693E0602F70E00E943C29892B58
:104F600051F044E050E0E40EF51E8FE390E0B5010F
:104F70000E949029B7CF033629F0033779F0033523
:104F8000F1F40BC087010E5F1F4FF7018081918103
:104F9000B5010E9490297801A5CF1160F701C0806A
:104FA000D18004C090E0B5010E949029F60110FD67
:104FB000859110FF81916F018823A1F78ACF043674
:104FC00011F0093639F517FF08C0F701208131814A
:104FD0004281538184E090E00AC0F7018081918191
:104FE0009C01442737FD4095542F82E090E0E80E65
:104FF000F91E1F7E57FF08C05095409530952195AA
:105000003F4F4F4F5F4F1064CA01B901A3012AE01F
:1050100030E034C00037A9F0013730F40835B1F082
:105020000F3609F05BC006C0053739F0083709F0C4
:1050300055C008C028E030E00CC01F7E2AE030E0F8
:1050400008C01061146220E130E003C0146020E168
:1050500032E017FF08C0F70160817181828193817E
:1050600044E050E008C0F70180819181BC0180E0FC
:1050700090E042E050E0E40EF51EA3010E94E0291A
:10508000D82ED618012F10E006FF05C08DE290E063
:10509000B5010E94902904FF15C0FE01ED0DF11D20
:1050A0008081803379F080E390E0B5010E949029FF
:1050B00002FF08C000721070C801885A9F4FB501E6
:1050C0000E949029DA94F301ED0DF11D808190E0AA
:1050D000B5010E949029DD20A9F704CFF501668172
:1050E0007781CB012B96EEE00C942529629FD001AD
:1050F000739FF001829FE00DF11D649FE00DF11D93
:10510000929FF00D839FF00D749FF00D659FF00D41
:105110009927729FB00DE11DF91F639FB00DE11D2E
:10512000F91FBD01CF0111240895991B79E004C036
:10513000991F961708F0961B881F7A95C9F78095D6
:105140000895AA1BBB1B51E107C0AA1FBB1FA617CE
:10515000B70710F0A61BB70B881F991F5A95A9F720
:1051600080959095BC01CD01089597FB092E0726E7
:105170000AD077FD04D0E5DF06D000201AF4709540
:1051800061957F4F0895F6F7909581959F4F08950B
:10519000A1E21A2EAA1BBB1BFD010DC0AA1FBB1F3B
:1051A000EE1FFF1FA217B307E407F50720F0A21BAD
:1051B000B30BE40BF50B661F771F881F991F1A941A
:1051C00069F760957095809590959B01AC01BD0144
:1051D000CF01089597FB092E05260ED057FD04D068
:1051E000D7DF0AD0001C38F45095409530952195B2
:1051F0003F4F4F4F5F4F0895F6F79095809570950C
:1052000061957F4F8F4F9F4F08952F923F924F92FE
:105210005F926F927F928F929F92AF92BF92CF9246
:10522000DF92EF92FF920F931F93CF93DF93CDB74F
:10523000DEB7CA1BDB0B0FB6F894DEBF0FBECDBFC7
:1052400009942A88398848885F846E847D848C8498
:105250009B84AA84B984C884DF80EE80FD800C81A1
:105260001B81AA81B981CE0FD11D0FB6F894DEBF84
:105270000FBECDBFED010895FC010590061621F08B
:105280000020D9F7C00108953197CF010895FC019E
:105290004150504030F001900616D1F73197CF01C0
:1052A0000895882799270895FB01DC0102C0019029
:1052B0000D9241505040D8F708956817790768F467
:1052C000FB01DC01E40FF51FA40FB51F02C0029023
:1052D0000E9241505040D8F708950C945429FB0188
:1052E0009F01E8944230C4F04532B4F44A3029F4C6
:1052F00097FB1EF4909581959F4F642F77270E940E
:10530000A128805D8A330CF0895D8193CB010097E1
:10531000A1F716F45DE251931082C9010C94842A1E
:105320000F931F93CF93DF938C01EB018B8181FF50
:105330001BC082FF0DC02E813F818C819D8128176B
:10534000390764F4E881F9810193F983E88306C0A1
:10535000E885F985802F0995892B31F48E819F810D
:1053600001969F838E8302C00FEF1FEFC801DF916C
:10537000CF911F910F910895AEE0B0E0E2ECF9E219
:105380000C9413290D891E8986E08C831A83098366
:105390008FEF9FE79E838D839E01275E3F4FCE0157
:1053A00001966F89788DA9010E9457272F81388532
:1053B000020F131FF80110822E96E4E00C942F299F
:1053C000FA01AA27283051F1203181F1E8946F9336
:1053D0006E7F6E5F7F4F8F4F9F4FAF4FB1E03ED0DC
:1053E000B4E03CD0670F781F891F9A1FA11D680F7A
:1053F000791F8A1F911DA11D6A0F711D811D911DAD
:10540000A11D20D009F468943F912AE0269F112421
:105410003019305D3193DEF6CF010895462F477085
:10542000405D4193B3E00FD0C9F7F6CF462F4F70E0
:10543000405D4A3318F0495D31FD4052419302D03E
:10544000A9F7EACFB4E0A6959795879577956795E4
:10545000BA95C9F700976105710508959B01AC01E4
:105460000A2E06945795479537952795BA95C9F70B
:10547000620F731F841F951FA01D0895DC01CB01CF
:10548000FC01E199FECF06C0FFBBEEBBE09A31966E
:105490000DB20D9241505040B8F70895E199FECFFA
:1054A0009FBB8EBBE09A99278DB30895DC01A40FB2
:1054B000B51F4150504048F0CB01840F951F2E91ED
:1054C0000E94672A41505040D0F70895262FE19955
:1054D000FECF9FBB8EBBE09A01970DB2021631F052
:1054E0002DBB0FB6F894E29AE19A0FBE0895262FCD
:1054F000E199FECF9FBB8EBB2DBB0FB6F894E29A0D
:10550000E19A0FBE01960895DC01FC01672F7191AD
:105510007723E1F7329704C07C916D937083629199
:0C552000AE17BF07C8F30895F894FFCF42
:10552C002563002E002C00FF0C78010176146E14FC
:10553C0002050000000163FFFFBD2255225AFFFF48
:00000001FF
